{
  "contractName": "EMR",
  "abi": [
    {
      "constant": false,
      "inputs": [
        {
          "name": "date",
          "type": "uint256"
        }
      ],
      "name": "getStayingForDate",
      "outputs": [
        {
          "name": "staying",
          "type": "uint32"
        }
      ],
      "payable": false,
      "stateMutability": "nonpayable",
      "type": "function"
    },
    {
      "constant": false,
      "inputs": [],
      "name": "increaseStaying",
      "outputs": [],
      "payable": false,
      "stateMutability": "nonpayable",
      "type": "function"
    },
    {
      "constant": false,
      "inputs": [
        {
          "name": "recordAddress",
          "type": "address"
        },
        {
          "name": "fullName",
          "type": "string"
        },
        {
          "name": "pointer",
          "type": "string"
        },
        {
          "name": "hashedRecord",
          "type": "bytes32"
        }
      ],
      "name": "createRecord",
      "outputs": [],
      "payable": false,
      "stateMutability": "nonpayable",
      "type": "function"
    },
    {
      "constant": false,
      "inputs": [
        {
          "name": "recordAddress",
          "type": "address"
        },
        {
          "name": "fullName",
          "type": "string"
        },
        {
          "name": "pointer",
          "type": "string"
        },
        {
          "name": "hashedRecord",
          "type": "bytes32"
        }
      ],
      "name": "updateRecord",
      "outputs": [],
      "payable": false,
      "stateMutability": "nonpayable",
      "type": "function"
    },
    {
      "constant": true,
      "inputs": [
        {
          "name": "recordAddress",
          "type": "address"
        }
      ],
      "name": "getRecordByAddress",
      "outputs": [
        {
          "components": [
            {
              "name": "isActive",
              "type": "bool"
            },
            {
              "name": "providerAddress",
              "type": "address"
            },
            {
              "name": "fullName",
              "type": "string"
            },
            {
              "name": "version",
              "type": "uint32"
            },
            {
              "name": "hashedRecord",
              "type": "bytes32"
            },
            {
              "name": "pointer",
              "type": "string"
            }
          ],
          "name": "r",
          "type": "tuple"
        }
      ],
      "payable": false,
      "stateMutability": "view",
      "type": "function"
    },
    {
      "constant": false,
      "inputs": [],
      "name": "decreaseStaying",
      "outputs": [],
      "payable": false,
      "stateMutability": "nonpayable",
      "type": "function"
    },
    {
      "constant": true,
      "inputs": [
        {
          "name": "recordAddress",
          "type": "address"
        }
      ],
      "name": "doesRecordExist",
      "outputs": [
        {
          "name": "exist",
          "type": "bool"
        }
      ],
      "payable": false,
      "stateMutability": "view",
      "type": "function"
    },
    {
      "inputs": [],
      "payable": false,
      "stateMutability": "nonpayable",
      "type": "constructor"
    }
  ],
  "bytecode": "0x6060604052341561000f57600080fd5b336000806101000a81548173ffffffffffffffffffffffffffffffffffffffff021916908373ffffffffffffffffffffffffffffffffffffffff160217905550610fcb8061005e6000396000f300606060405260043610610083576000357c0100000000000000000000000000000000000000000000000000000000900463ffffffff168063189ef242146100885780631c5f4caf146100cb5780632a661b67146100e057806343231596146101ac578063b1e3cdd514610278578063b5d5bbbc146102c5578063e8b60c10146102da575b600080fd5b341561009357600080fd5b6100a9600480803590602001909190505061032b565b604051808263ffffffff1663ffffffff16815260200191505060405180910390f35b34156100d657600080fd5b6100de6103bd565b005b34156100eb57600080fd5b6101aa600480803573ffffffffffffffffffffffffffffffffffffffff1690602001909190803590602001908201803590602001908080601f0160208091040260200160405190810160405280939291908181526020018383808284378201915050505050509190803590602001908201803590602001908080601f01602080910402602001604051908101604052809392919081815260200183838082843782019150505050505091908035600019169060200190919050506104ff565b005b34156101b757600080fd5b610276600480803573ffffffffffffffffffffffffffffffffffffffff1690602001909190803590602001908201803590602001908080601f0160208091040260200160405190810160405280939291908181526020018383808284378201915050505050509190803590602001908201803590602001908080601f0160208091040260200160405190810160405280939291908181526020018383808284378201915050505050509190803560001916906020019091905050610795565b005b341561028357600080fd5b6102af600480803573ffffffffffffffffffffffffffffffffffffffff16906020019091905050610a28565b6040518082815260200191505060405180910390f35b34156102d057600080fd5b6102d8610cc7565b005b34156102e557600080fd5b610311600480803573ffffffffffffffffffffffffffffffffffffffff16906020019091905050610d77565b604051808215151515815260200191505060405180910390f35b600080610336610dd0565b90508083108015610371575060006002600085815260200190815260200160002060009054906101000a900463ffffffff1663ffffffff1614155b156103a1576002600084815260200190815260200160002060009054906101000a900463ffffffff1691506103b7565b600360009054906101000a900463ffffffff1691505b50919050565b600080600360009054906101000a900463ffffffff1663ffffffff166001600360009054906101000a900463ffffffff160163ffffffff1611151561040157600080fd5b610409610dd0565b915081600454101561047c5760045490505b8181101561047457600360009054906101000a900463ffffffff166002600083815260200190815260200160002060006101000a81548163ffffffff021916908363ffffffff160217905550620151808101905061041b565b816004819055505b6003600081819054906101000a900463ffffffff168092919060010191906101000a81548163ffffffff021916908363ffffffff16021790555050600360009054906101000a900463ffffffff166002600084815260200190815260200160002060006101000a81548163ffffffff021916908363ffffffff1602179055505050565b6000600160008673ffffffffffffffffffffffffffffffffffffffff1673ffffffffffffffffffffffffffffffffffffffff16815260200190815260200160002090508060000160009054906101000a900460ff1615151561056057600080fd5b60018160000160006101000a81548160ff021916908315150217905550328160000160016101000a81548173ffffffffffffffffffffffffffffffffffffffff021916908373ffffffffffffffffffffffffffffffffffffffff160217905550828160040190805190602001906105d8929190610dfb565b508181600301816000191690555060018160020160009054906101000a900463ffffffff16018160020160006101000a81548163ffffffff021916908363ffffffff16021790555080600160008773ffffffffffffffffffffffffffffffffffffffff1673ffffffffffffffffffffffffffffffffffffffff1681526020019081526020016000206000820160009054906101000a900460ff168160000160006101000a81548160ff0219169083151502179055506000820160019054906101000a900473ffffffffffffffffffffffffffffffffffffffff168160000160016101000a81548173ffffffffffffffffffffffffffffffffffffffff021916908373ffffffffffffffffffffffffffffffffffffffff1602179055506001820181600101908054600181600116156101000203166002900461071b929190610e7b565b506002820160009054906101000a900463ffffffff168160020160006101000a81548163ffffffff021916908363ffffffff160217905550600382015481600301906000191690556004820181600401908054600181600116156101000203166002900461078a929190610e7b565b509050505050505050565b6000600160008673ffffffffffffffffffffffffffffffffffffffff1673ffffffffffffffffffffffffffffffffffffffff16815260200190815260200160002090508060000160009054906101000a900460ff1615156107f557600080fd5b8060000160019054906101000a900473ffffffffffffffffffffffffffffffffffffffff1673ffffffffffffffffffffffffffffffffffffffff163273ffffffffffffffffffffffffffffffffffffffff1614151561085357600080fd5b8281600401908051906020019061086b929190610dfb565b508181600301816000191690555060018160020160009054906101000a900463ffffffff16018160020160006101000a81548163ffffffff021916908363ffffffff16021790555080600160008773ffffffffffffffffffffffffffffffffffffffff1673ffffffffffffffffffffffffffffffffffffffff1681526020019081526020016000206000820160009054906101000a900460ff168160000160006101000a81548160ff0219169083151502179055506000820160019054906101000a900473ffffffffffffffffffffffffffffffffffffffff168160000160016101000a81548173ffffffffffffffffffffffffffffffffffffffff021916908373ffffffffffffffffffffffffffffffffffffffff160217905550600182018160010190805460018160011615610100020316600290046109ae929190610e7b565b506002820160009054906101000a900463ffffffff168160020160006101000a81548163ffffffff021916908363ffffffff1602179055506003820154816003019060001916905560048201816004019080546001816001161561010002031660029004610a1d929190610e7b565b509050505050505050565b610a30610f02565b600160008373ffffffffffffffffffffffffffffffffffffffff1673ffffffffffffffffffffffffffffffffffffffff16815260200190815260200160002060000160009054906101000a900460ff161515610a8857fe5b600160008373ffffffffffffffffffffffffffffffffffffffff1673ffffffffffffffffffffffffffffffffffffffff16815260200190815260200160002060c060405190810160405290816000820160009054906101000a900460ff161515151581526020016000820160019054906101000a900473ffffffffffffffffffffffffffffffffffffffff1673ffffffffffffffffffffffffffffffffffffffff1673ffffffffffffffffffffffffffffffffffffffff168152602001600182018054600181600116156101000203166002900480601f016020809104026020016040519081016040528092919081815260200182805460018160011615610100020316600290048015610bdd5780601f10610bb257610100808354040283529160200191610bdd565b820191906000526020600020905b815481529060010190602001808311610bc057829003601f168201915b505050505081526020016002820160009054906101000a900463ffffffff1663ffffffff1663ffffffff168152602001600382015460001916600019168152602001600482018054600181600116156101000203166002900480601f016020809104026020016040519081016040528092919081815260200182805460018160011615610100020316600290048015610cb75780601f10610c8c57610100808354040283529160200191610cb7565b820191906000526020600020905b815481529060010190602001808311610c9a57829003601f168201915b5050505050815250509050919050565b6000600360009054906101000a900463ffffffff1663ffffffff16111515610cee57600080fd5b6003600081819054906101000a900463ffffffff16809291906001900391906101000a81548163ffffffff021916908363ffffffff16021790555050600360009054906101000a900463ffffffff1660026000610d49610dd0565b815260200190815260200160002060006101000a81548163ffffffff021916908363ffffffff160217905550565b6000600160008373ffffffffffffffffffffffffffffffffffffffff1673ffffffffffffffffffffffffffffffffffffffff16815260200190815260200160002060000160009054906101000a900460ff169050919050565b60006018603c8042811515610de157fe5b04811515610deb57fe5b04811515610df557fe5b04905090565b828054600181600116156101000203166002900490600052602060002090601f016020900481019282601f10610e3c57805160ff1916838001178555610e6a565b82800160010185558215610e6a579182015b82811115610e69578251825591602001919060010190610e4e565b5b509050610e779190610f66565b5090565b828054600181600116156101000203166002900490600052602060002090601f016020900481019282601f10610eb45780548555610ef1565b82800160010185558215610ef157600052602060002091601f016020900482015b82811115610ef0578254825591600101919060010190610ed5565b5b509050610efe9190610f66565b5090565b60c060405190810160405280600015158152602001600073ffffffffffffffffffffffffffffffffffffffff168152602001610f3c610f8b565b8152602001600063ffffffff16815260200160008019168152602001610f60610f8b565b81525090565b610f8891905b80821115610f84576000816000905550600101610f6c565b5090565b90565b6020604051908101604052806000815250905600a165627a7a723058203d7fbabcafc6d110733f83b00bc5b1ca54b121c7b3db252e3ddc8a1d6519cb150029",
  "source": "pragma solidity ^0.4.17;\n\ncontract EMR {\n\n    address admin;\n    mapping(address => Record) private records;\n    mapping(uint => uint32) private historicalTotalStaying;\n    uint32 private currentTotalStaying;\n    uint lastRecordedDate;\n\n    function EMR() public {\n        admin = msg.sender;\n    }\n\n    struct Record {\n        bool isActive;\n        address providerAddress;\n        string fullName; // unique identifier for the record\n        uint32 version; // version number\n        bytes32 hashedRecord; // sha256 of full records from the provider\n        string pointer; // A remote address to access patient's full records in provider's database\n    }\n\n    function getCurrentDate() private constant returns (uint date) {\n        return uint(now) / 60 / 60 / 24;\n    }\n\n    function getStayingForDate(uint date) returns (uint32 staying) {\n        uint currentDate = getCurrentDate();\n        if (date < currentDate && historicalTotalStaying[date] != 0) {\n            return historicalTotalStaying[date]; \n        } else {\n            return currentTotalStaying;\n        }\n    }\n\n    function doesRecordExist(address recordAddress) public constant returns (bool exist) {\n        return records[recordAddress].isActive;\n    }\n\n    function getRecordByAddress(address recordAddress) public constant returns (Record r) {\n        assert(records[recordAddress].isActive);\n        return records[recordAddress]; \n    }\n\n    function increaseStaying() public {\n        require(currentTotalStaying + 1 > currentTotalStaying);\n        uint currentDate = getCurrentDate();\n        if (lastRecordedDate < currentDate) {\n            for (uint date = lastRecordedDate; date < currentDate; date += 60 * 60 * 24) {\n                historicalTotalStaying[date] = currentTotalStaying;\n            }\n            lastRecordedDate = currentDate;\n        }\n        currentTotalStaying++;\n        historicalTotalStaying[currentDate] = currentTotalStaying;\n    }\n\n    function decreaseStaying() public {\n        require(currentTotalStaying > 0);\n        currentTotalStaying--;\n        historicalTotalStaying[getCurrentDate()] = currentTotalStaying;\n    } \n\n    function createRecord(address recordAddress, string fullName, string pointer, bytes32 hashedRecord) public {\n        Record record = records[recordAddress];\n        require(!record.isActive);\n        // Only the owner of the record could update it\n        record.isActive = true;\n        record.providerAddress = tx.origin;\n        record.pointer = pointer;\n        record.hashedRecord = hashedRecord;\n        record.version = record.version + 1;\n        records[recordAddress] = record;\n    }\n\n    function updateRecord(address recordAddress, string fullName, string pointer, bytes32 hashedRecord) public {\n        Record record = records[recordAddress];\n        require(record.isActive);\n        // Only the owner of the record could update it\n        require(tx.origin == record.providerAddress);\n        record.pointer = pointer;\n        record.hashedRecord = hashedRecord;\n        record.version = record.version + 1;\n        records[recordAddress] = record;\n    }\n}\n",
  "sourcePath": "/Users/yanjia.li/Projects/medchain/contracts/EMR.sol",
  "compiler": {
    "name": "solc",
    "version": "0.4.18+commit.9cf6e910.Emscripten.clang"
  },
  "schemaVersion": "1.0.1",
  "updatedAt": "2018-03-02T05:25:58.201Z"
}