{
  "contractName": "FuzzyMatcher",
  "abi": [
    {
      "constant": false,
      "inputs": [
        {
          "name": "target",
          "type": "string"
        }
      ],
      "name": "getSimilarNode",
      "outputs": [
        {
          "name": "r",
          "type": "string"
        }
      ],
      "payable": false,
      "stateMutability": "nonpayable",
      "type": "function"
    },
    {
      "constant": false,
      "inputs": [
        {
          "name": "value",
          "type": "string"
        }
      ],
      "name": "addNewNode",
      "outputs": [],
      "payable": false,
      "stateMutability": "nonpayable",
      "type": "function"
    },
    {
      "inputs": [],
      "payable": false,
      "stateMutability": "nonpayable",
      "type": "constructor"
    }
  ],
  "bytecode": "0x606060405234156200001057600080fd5b6020604051908101604052806040805190810160405280600981526020017f59616e6a6961204c69000000000000000000000000000000000000000000000081525081525060016000820151816000019080519060200190620000759291906200012f565b509050506001600060016000016040518082805460018160011615610100020316600290048015620000e15780601f10620000be576101008083540402835291820191620000e1565b820191906000526020600020905b815481529060010190602001808311620000cc575b50509150509081526020016040518091039020600082018160000190805460018160011615610100020316600290046200011d929190620001b6565b5090505060016003819055506200026c565b828054600181600116156101000203166002900490600052602060002090601f016020900481019282601f106200017257805160ff1916838001178555620001a3565b82800160010185558215620001a3579182015b82811115620001a257825182559160200191906001019062000185565b5b509050620001b2919062000244565b5090565b828054600181600116156101000203166002900490600052602060002090601f016020900481019282601f10620001f1578054855562000231565b828001600101855582156200023157600052602060002091601f016020900482015b828111156200023057825482559160010191906001019062000213565b5b50905062000240919062000244565b5090565b6200026991905b80821115620002655760008160009055506001016200024b565b5090565b90565b6111ce806200027c6000396000f30060606040526004361061004c576000357c0100000000000000000000000000000000000000000000000000000000900463ffffffff16806366db85b314610051578063734eed2614610127575b600080fd5b341561005c57600080fd5b6100ac600480803590602001908201803590602001908080601f01602080910402602001604051908101604052809392919081815260200183838082843782019150505050505091905050610184565b6040518080602001828103825283818151815260200191508051906020019080838360005b838110156100ec5780820151818401526020810190506100d1565b50505050905090810190601f1680156101195780820380516001836020036101000a031916815260200191505b509250505060405180910390f35b341561013257600080fd5b610182600480803590602001908201803590602001908080601f016020809104026020016040519081016040528093929190818152602001838380828437820191505050505050919050506105b3565b005b61018c610f91565b600080600080600080600061019f610f91565b60019750600095505b86805490508663ffffffff1610806101c6575060008663ffffffff16145b15610592576102718a896000018054600181600116156101000203166002900480601f0160208091040260200160405190810160405280929190818152602001828054600181600116156101000203166002900480156102675780601f1061023c57610100808354040283529160200191610267565b820191906000526020600020905b81548152906001019060200180831161024a57829003601f168201915b5050505050610774565b94506003548511151561032257876000018054600181600116156101000203166002900480601f0160208091040260200160405190810160405280929190818152602001828054600181600116156101000203166002900480156103165780601f106102eb57610100808354040283529160200191610316565b820191906000526020600020905b8154815290600101906020018083116102f957829003601f168201915b505050505098506105a6565b600060035486031161033557600161033b565b60035485035b9350600354850192508391505b82821115156104db578760010160008381526020019081526020016000208054600181600116156101000203166002900480601f0160208091040260200160405190810160405280929190818152602001828054600181600116156101000203166002900480156103fa5780601f106103cf576101008083540402835291602001916103fa565b820191906000526020600020905b8154815290600101906020018083116103dd57829003601f168201915b5050505050905061040a81610bc5565b15156104ce578680548060010182816104239190610fa5565b9160005260206000209060020201600080846040518082805190602001908083835b60208310151561046a5780518252602082019150602081019050602083039250610445565b6001836020036101000a03801982511681845116808217855250505050505090500191505090815260200160405180910390209091909150600082018160000190805460018160011615610100020316600290046104c9929190610fd7565b505050505b8180600101925050610348565b86805490508663ffffffff161015610585576000878763ffffffff1681548110151561050357fe5b9060005260206000209060020201600001604051808280546001816001161561010002031660029004801561056f5780601f1061054d57610100808354040283529182019161056f565b820191906000526020600020905b81548152906001019060200180831161055b575b5050915050908152602001604051809103902097505b85806001019650506101a8565b602060405190810160405280600081525098505b5050505050505050919050565b6106c26000826040518082805190602001908083835b6020831015156105ee57805182526020820191506020810190506020830392506105c9565b6001836020036101000a03801982511681845116808217855250505050505090500191505090815260200160405180910390206000018054600181600116156101000203166002900480601f0160208091040260200160405190810160405280929190818152602001828054600181600116156101000203166002900480156106b85780601f1061068d576101008083540402835291602001916106b8565b820191906000526020600020905b81548152906001019060200180831161069b57829003601f168201915b5050505050610bc5565b15156106ca57fe5b61077160016000018054600181600116156101000203166002900480601f0160208091040260200160405190810160405280929190818152602001828054600181600116156101000203166002900480156107665780601f1061073b57610100808354040283529160200191610766565b820191906000526020600020905b81548152906001019060200180831161074957829003601f168201915b505050505082610c9d565b50565b600061077e61105e565b61078661105e565b600080610791611072565b60008060008060008c99508b985060018a5101975060018951019650600194505b86851115156107fd57848660008151811015156107cb57fe5b90602001906020020151868151811015156107e257fe5b906020019060200201818152505084806001019550506107b2565b600193505b8784111515610b845783868581518110151561081a57fe5b90602001906020020151600081518110151561083257fe5b9060200190602002018181525050600192505b8683111515610b7757856001850381518110151561085f57fe5b906020019060200201516001840381518110151561087957fe5b90602001906020020151868581518110151561089157fe5b90602001906020020151848151811015156108a857fe5b906020019060200201818152505088600184038151811015156108c757fe5b9060200101517f010000000000000000000000000000000000000000000000000000000000000090047f0100000000000000000000000000000000000000000000000000000000000000027effffffffffffffffffffffffffffffffffffffffffffffffffffffffffffff19168a6001860381518110151561094557fe5b9060200101517f010000000000000000000000000000000000000000000000000000000000000090047f0100000000000000000000000000000000000000000000000000000000000000027effffffffffffffffffffffffffffffffffffffffffffffffffffffffffffff19161415156109f45785848151811015156109c757fe5b90602001906020020151838151811015156109de57fe5b9060200190602002018051809190600101815250505b8560018503815181101515610a0557fe5b9060200190602002015183815181101515610a1c57fe5b906020019060200201518685815181101515610a3457fe5b9060200190602002015184815181101515610a4b57fe5b9060200190602002015110610a91578560018503815181101515610a6b57fe5b9060200190602002015183815181101515610a8257fe5b90602001906020020151610ac1565b8584815181101515610a9f57fe5b9060200190602002015183815181101515610ab657fe5b906020019060200201515b91508584815181101515610ad157fe5b9060200190602002015160018403815181101515610aeb57fe5b906020019060200201518210610b32578584815181101515610b0957fe5b9060200190602002015160018403815181101515610b2357fe5b90602001906020020151610b34565b815b9050808685815181101515610b4557fe5b9060200190602002015184815181101515610b5c57fe5b90602001906020020181815250508280600101935050610845565b8380600101945050610802565b8588815181101515610b9257fe5b9060200190602002015187815181101515610ba957fe5b906020019060200201519a505050505050505050505092915050565b6000600260006040516020015260405180600001905060206040518083038160008661646e5a03f11515610bf857600080fd5b505060405180519050600019166002836000604051602001526040518082805190602001908083835b602083101515610c465780518252602082019150602081019050602083039250610c21565b6001836020036101000a03801982511681845116808217855250505050505090500191505060206040518083038160008661646e5a03f11515610c8857600080fd5b50506040518051905060001916149050919050565b6000610ca98284610774565b9050610dcb6000846040518082805190602001908083835b602083101515610ce65780518252602082019150602081019050602083039250610cc1565b6001836020036101000a038019825116818451168082178552505050505050905001915050908152602001604051809103902060010160008381526020019081526020016000208054600181600116156101000203166002900480601f016020809104026020016040519081016040528092919081815260200182805460018160011615610100020316600290048015610dc15780601f10610d9657610100808354040283529160200191610dc1565b820191906000526020600020905b815481529060010190602001808311610da457829003601f168201915b5050505050610bc5565b1515610ef757610ef26000846040518082805190602001908083835b602083101515610e0c5780518252602082019150602081019050602083039250610de7565b6001836020036101000a038019825116818451168082178552505050505050905001915050908152602001604051809103902060010160008381526020019081526020016000208054600181600116156101000203166002900480601f016020809104026020016040519081016040528092919081815260200182805460018160011615610100020316600290048015610ee75780601f10610ebc57610100808354040283529160200191610ee7565b820191906000526020600020905b815481529060010190602001808311610eca57829003601f168201915b505050505083610c9d565b610f8c565b816000846040518082805190602001908083835b602083101515610f305780518252602082019150602081019050602083039250610f0b565b6001836020036101000a038019825116818451168082178552505050505050905001915050908152602001604051809103902060010160008381526020019081526020016000209080519060200190610f8a929190611086565b505b505050565b602060405190810160405280600081525090565b815481835581811511610fd257600202816002028360005260206000209182019101610fd19190611106565b5b505050565b828054600181600116156101000203166002900490600052602060002090601f016020900481019282601f10611010578054855561104d565b8280016001018555821561104d57600052602060002091601f016020900482015b8281111561104c578254825591600101919060010190611031565b5b50905061105a9190611135565b5090565b602060405190810160405280600081525090565b602060405190810160405280600081525090565b828054600181600116156101000203166002900490600052602060002090601f016020900481019282601f106110c757805160ff19168380011785556110f5565b828001600101855582156110f5579182015b828111156110f45782518255916020019190600101906110d9565b5b5090506111029190611135565b5090565b61113291905b8082111561112e5760008082016000611125919061115a565b5060020161110c565b5090565b90565b61115791905b8082111561115357600081600090555060010161113b565b5090565b90565b50805460018160011615610100020316600290046000825580601f10611180575061119f565b601f01602090049060005260206000209081019061119e9190611135565b5b505600a165627a7a7230582046c4d438ecd1c9767fdf11c66dc5094cc5faa32cb7e43f787051a4fa4449c9b80029",
  "source": "pragma solidity ^0.4.18;\n\ncontract FuzzyMatcher {\n\n    mapping(string => BKTreeNode) bkTree; // BT Tree is represented by a map here\n    BKTreeNode root; // The root node of the tree\n    uint k;\n\n    function FuzzyMatcher() public {\n        root = BKTreeNode({ value: \"Yanjia Li\" });\n        bkTree[root.value] = root;\n        k = 1; // maxium acceptable edit distance is 1\n    }\n\n    struct BKTreeNode {\n        string value;\n        mapping(uint => string) children;\n    }\n\n    function isEmptyString(string str) private pure returns (bool isEmpty) {\n        return sha256(str) == sha256(\"\");\n    }\n\n    /*\n        Add a new name to this BK tree\n    */\n    function addNewNode(string value) public {\n        assert(isEmptyString(bkTree[value].value));\n        addNode(root.value, value);\n    }\n\n    /*\n        Add a new name to this BK tree. Using recusion to find the right spot for insertion.\n    */\n    function addNode(string next, string value) private {\n        uint distance = getEditDistance(value, next);\n        if (!isEmptyString(bkTree[next].children[distance])) {\n            addNode(bkTree[next].children[distance], value);\n        } else {\n            bkTree[next].children[distance] = value;\n        }\n    }\n\n    /*\n        Travese the BK tree to find nodes that has edit distance <= 1 with input name\n    */\n    function getSimilarNode(string target) public returns(string r) {\n        BKTreeNode storage curr = root;\n        BKTreeNode[] storage queue;\n        uint32 pointer = 0;\n        while (pointer < queue.length || pointer == 0) {\n            uint distance = getEditDistance(target, curr.value);\n            // Ideally, we could traverse the BK tree and get all values with edit distance = 1\n            // but here we only return the first valid one we encountered\n            if (distance <= k) {\n                return curr.value;\n            }\n            uint lower = distance - k > 0 ? distance - k : 1;\n            uint upper = distance + k;\n            for (uint index = lower; index <= upper; index++) {\n                string memory next = curr.children[index];\n                if (!isEmptyString(next)) {\n                    queue.push(bkTree[next]);\n                }\n            }\n            if (pointer < queue.length) {\n                curr = bkTree[queue[pointer].value];\n            }\n            pointer++;\n        }\n        return \"\";\n    }\n    \n    /*\n        A Dynamic programming algorithm to calculate the edit distance between two strings efficiently\n    */\n    function getEditDistance(string src, string dst) pure private returns(uint d) {\n        // reutnr edit distance between src and dst\n        bytes memory srcBytes = bytes(src);\n        bytes memory dstBytes = bytes(dst);\n        uint m = srcBytes.length + 1;\n        uint n = dstBytes.length + 1;\n        uint[][] memory dp;\n        for (uint col = 1; col <= n; col++) {\n            dp[0][col] = col;\n        }\n        for (uint i = 1; i <= m; i++) {\n            dp[i][0] = i;\n            for (uint j = 1; j <= n; j++) {\n                dp[i][j] = dp[i - 1][j - 1];\n                if (srcBytes[i - 1] != dstBytes[j - 1]) {\n                    dp[i][j]++;\n                }\n                uint min1 = dp[i][j] < dp[i - 1][j] ? dp[i][j] : dp[i - 1][j];\n                uint min2 = min1 < dp[i][j - 1] ? min1 : dp[i][j - 1];\n                dp[i][j] = min2;\n            }\n        }\n        return dp[m][n];\n    }\n}",
  "sourcePath": "/Users/yanjia.li/Projects/medchain/contracts/FuzzyMatcher.sol",
  "compiler": {
    "name": "solc",
    "version": "0.4.18+commit.9cf6e910.Emscripten.clang"
  },
  "schemaVersion": "1.0.1",
  "updatedAt": "2018-03-02T12:28:37.711Z"
}