{
  "contractName": "Master",
  "abi": [
    {
      "constant": false,
      "inputs": [
        {
          "name": "fullName",
          "type": "string"
        }
      ],
      "name": "dischargePatient",
      "outputs": [],
      "payable": false,
      "stateMutability": "nonpayable",
      "type": "function"
    },
    {
      "constant": false,
      "inputs": [
        {
          "name": "fullName",
          "type": "string"
        }
      ],
      "name": "admitPatient",
      "outputs": [],
      "payable": false,
      "stateMutability": "nonpayable",
      "type": "function"
    },
    {
      "constant": false,
      "inputs": [
        {
          "name": "recordAddress",
          "type": "address"
        },
        {
          "name": "providerCode",
          "type": "string"
        },
        {
          "name": "fullName",
          "type": "string"
        },
        {
          "name": "pointer",
          "type": "string"
        },
        {
          "name": "hashedRecord",
          "type": "bytes32"
        }
      ],
      "name": "updatePatientRecord",
      "outputs": [],
      "payable": false,
      "stateMutability": "nonpayable",
      "type": "function"
    },
    {
      "constant": false,
      "inputs": [
        {
          "name": "recordAddress",
          "type": "address"
        },
        {
          "name": "providerCode",
          "type": "string"
        },
        {
          "name": "fullName",
          "type": "string"
        },
        {
          "name": "pointer",
          "type": "string"
        },
        {
          "name": "hashedRecord",
          "type": "bytes32"
        }
      ],
      "name": "createPatientRecord",
      "outputs": [],
      "payable": false,
      "stateMutability": "nonpayable",
      "type": "function"
    },
    {
      "inputs": [
        {
          "name": "patientsProviderAddress",
          "type": "address"
        },
        {
          "name": "emrAddress",
          "type": "address"
        }
      ],
      "payable": false,
      "stateMutability": "nonpayable",
      "type": "constructor"
    }
  ],
  "bytecode": "0x6060604052341561000f57600080fd5b60405160408061121583398101604052808051906020019091908051906020019091905050336000806101000a81548173ffffffffffffffffffffffffffffffffffffffff021916908373ffffffffffffffffffffffffffffffffffffffff16021790555081600160006101000a81548173ffffffffffffffffffffffffffffffffffffffff021916908373ffffffffffffffffffffffffffffffffffffffff16021790555080600260006101000a81548173ffffffffffffffffffffffffffffffffffffffff021916908373ffffffffffffffffffffffffffffffffffffffff160217905550505061110e806101076000396000f300606060405260043610610062576000357c0100000000000000000000000000000000000000000000000000000000900463ffffffff16806371eb1867146100675780638e87de59146100c4578063de4e6b0414610121578063f677548b14610230575b600080fd5b341561007257600080fd5b6100c2600480803590602001908201803590602001908080601f0160208091040260200160405190810160405280939291908181526020018383808284378201915050505050509190505061033f565b005b34156100cf57600080fd5b61011f600480803590602001908201803590602001908080601f016020809104026020016040519081016040528093929190818152602001838380828437820191505050505050919050506104fc565b005b341561012c57600080fd5b61022e600480803573ffffffffffffffffffffffffffffffffffffffff1690602001909190803590602001908201803590602001908080601f0160208091040260200160405190810160405280939291908181526020018383808284378201915050505050509190803590602001908201803590602001908080601f0160208091040260200160405190810160405280939291908181526020018383808284378201915050505050509190803590602001908201803590602001908080601f01602080910402602001604051908101604052809392919081815260200183838082843782019150505050505091908035600019169060200190919050506107c0565b005b341561023b57600080fd5b61033d600480803573ffffffffffffffffffffffffffffffffffffffff1690602001909190803590602001908201803590602001908080601f0160208091040260200160405190810160405280939291908181526020018383808284378201915050505050509190803590602001908201803590602001908080601f0160208091040260200160405190810160405280939291908181526020018383808284378201915050505050509190803590602001908201803590602001908080601f0160208091040260200160405190810160405280939291908181526020018383808284378201915050505050509190803560001916906020019091905050610bfd565b005b600160009054906101000a900473ffffffffffffffffffffffffffffffffffffffff1673ffffffffffffffffffffffffffffffffffffffff1663f7252641826000604051602001526040518263ffffffff167c01000000000000000000000000000000000000000000000000000000000281526004018080602001828103825283818151815260200191508051906020019080838360005b838110156103f25780820151818401526020810190506103d7565b50505050905090810190601f16801561041f5780820380516001836020036101000a031916815260200191505b5092505050602060405180830381600087803b151561043d57600080fd5b6102c65a03f1151561044e57600080fd5b50505060405180519050151561046057fe5b600260009054906101000a900473ffffffffffffffffffffffffffffffffffffffff1673ffffffffffffffffffffffffffffffffffffffff1663b5d5bbbc6040518163ffffffff167c0100000000000000000000000000000000000000000000000000000000028152600401600060405180830381600087803b15156104e557600080fd5b6102c65a03f115156104f657600080fd5b50505050565b600160009054906101000a900473ffffffffffffffffffffffffffffffffffffffff1673ffffffffffffffffffffffffffffffffffffffff1663f7252641826000604051602001526040518263ffffffff167c01000000000000000000000000000000000000000000000000000000000281526004018080602001828103825283818151815260200191508051906020019080838360005b838110156105af578082015181840152602081019050610594565b50505050905090810190601f1680156105dc5780820380516001836020036101000a031916815260200191505b5092505050602060405180830381600087803b15156105fa57600080fd5b6102c65a03f1151561060b57600080fd5b505050604051805190501561072457600160009054906101000a900473ffffffffffffffffffffffffffffffffffffffff1673ffffffffffffffffffffffffffffffffffffffff1663838f47ca826040518263ffffffff167c01000000000000000000000000000000000000000000000000000000000281526004018080602001828103825283818151815260200191508051906020019080838360005b838110156106c45780820151818401526020810190506106a9565b50505050905090810190601f1680156106f15780820380516001836020036101000a031916815260200191505b5092505050600060405180830381600087803b151561070f57600080fd5b6102c65a03f1151561072057600080fd5b5050505b600260009054906101000a900473ffffffffffffffffffffffffffffffffffffffff1673ffffffffffffffffffffffffffffffffffffffff16631c5f4caf6040518163ffffffff167c0100000000000000000000000000000000000000000000000000000000028152600401600060405180830381600087803b15156107a957600080fd5b6102c65a03f115156107ba57600080fd5b50505050565b600260009054906101000a900473ffffffffffffffffffffffffffffffffffffffff1673ffffffffffffffffffffffffffffffffffffffff1663e8b60c10866000604051602001526040518263ffffffff167c0100000000000000000000000000000000000000000000000000000000028152600401808273ffffffffffffffffffffffffffffffffffffffff1673ffffffffffffffffffffffffffffffffffffffff168152602001915050602060405180830381600087803b151561088557600080fd5b6102c65a03f1151561089657600080fd5b5050506040518051905015156108ab57600080fd5b600160009054906101000a900473ffffffffffffffffffffffffffffffffffffffff1673ffffffffffffffffffffffffffffffffffffffff16636acec9cc85856000604051602001526040518363ffffffff167c0100000000000000000000000000000000000000000000000000000000028152600401808060200180602001838103835285818151815260200191508051906020019080838360005b83811015610963578082015181840152602081019050610948565b50505050905090810190601f1680156109905780820380516001836020036101000a031916815260200191505b50838103825284818151815260200191508051906020019080838360005b838110156109c95780820151818401526020810190506109ae565b50505050905090810190601f1680156109f65780820380516001836020036101000a031916815260200191505b50945050505050602060405180830381600087803b1515610a1657600080fd5b6102c65a03f11515610a2757600080fd5b505050604051805190501515610a3c57600080fd5b600260009054906101000a900473ffffffffffffffffffffffffffffffffffffffff1673ffffffffffffffffffffffffffffffffffffffff166343231596868585856040518563ffffffff167c0100000000000000000000000000000000000000000000000000000000028152600401808573ffffffffffffffffffffffffffffffffffffffff1673ffffffffffffffffffffffffffffffffffffffff16815260200180602001806020018460001916600019168152602001838103835286818151815260200191508051906020019080838360005b83811015610b2d578082015181840152602081019050610b12565b50505050905090810190601f168015610b5a5780820380516001836020036101000a031916815260200191505b50838103825285818151815260200191508051906020019080838360005b83811015610b93578082015181840152602081019050610b78565b50505050905090810190601f168015610bc05780820380516001836020036101000a031916815260200191505b509650505050505050600060405180830381600087803b1515610be257600080fd5b6102c65a03f11515610bf357600080fd5b5050505050505050565b600260009054906101000a900473ffffffffffffffffffffffffffffffffffffffff1673ffffffffffffffffffffffffffffffffffffffff1663e8b60c10866000604051602001526040518263ffffffff167c0100000000000000000000000000000000000000000000000000000000028152600401808273ffffffffffffffffffffffffffffffffffffffff1673ffffffffffffffffffffffffffffffffffffffff168152602001915050602060405180830381600087803b1515610cc257600080fd5b6102c65a03f11515610cd357600080fd5b50505060405180519050151515610ce957600080fd5b600160009054906101000a900473ffffffffffffffffffffffffffffffffffffffff1673ffffffffffffffffffffffffffffffffffffffff166364e7346d86868686866000604051602001526040518663ffffffff167c0100000000000000000000000000000000000000000000000000000000028152600401808673ffffffffffffffffffffffffffffffffffffffff1673ffffffffffffffffffffffffffffffffffffffff1681526020018060200180602001806020018560001916600019168152602001848103845288818151815260200191508051906020019080838360005b83811015610de8578082015181840152602081019050610dcd565b50505050905090810190601f168015610e155780820380516001836020036101000a031916815260200191505b50848103835287818151815260200191508051906020019080838360005b83811015610e4e578082015181840152602081019050610e33565b50505050905090810190601f168015610e7b5780820380516001836020036101000a031916815260200191505b50848103825286818151815260200191508051906020019080838360005b83811015610eb4578082015181840152602081019050610e99565b50505050905090810190601f168015610ee15780820380516001836020036101000a031916815260200191505b5098505050505050505050602060405180830381600087803b1515610f0557600080fd5b6102c65a03f11515610f1657600080fd5b5050506040518051905050600260009054906101000a900473ffffffffffffffffffffffffffffffffffffffff1673ffffffffffffffffffffffffffffffffffffffff16632a661b67868585856040518563ffffffff167c0100000000000000000000000000000000000000000000000000000000028152600401808573ffffffffffffffffffffffffffffffffffffffff1673ffffffffffffffffffffffffffffffffffffffff16815260200180602001806020018460001916600019168152602001838103835286818151815260200191508051906020019080838360005b83811015611012578082015181840152602081019050610ff7565b50505050905090810190601f16801561103f5780820380516001836020036101000a031916815260200191505b50838103825285818151815260200191508051906020019080838360005b8381101561107857808201518184015260208101905061105d565b50505050905090810190601f1680156110a55780820380516001836020036101000a031916815260200191505b509650505050505050600060405180830381600087803b15156110c757600080fd5b6102c65a03f115156110d857600080fd5b50505050505050505600a165627a7a72305820cd0239a63488e1e5fc0b5194f6af9f2a7a75c616f6577137a09c653d6adda9c50029",
  "source": "pragma solidity ^0.4.17;\n\nimport './FuzzyMatcher.sol';\nimport './PatientsProviders.sol';\nimport './EMR.sol';\n\ncontract Master {\n\n    address admin;\n    PatientsProviders patientsProviders;\n    EMR emr;\n\n    function Master(address patientsProviderAddress, address emrAddress) public {\n        admin = msg.sender;\n        patientsProviders = PatientsProviders(patientsProviderAddress);\n        emr = EMR(emrAddress);\n    }\n\n    function admitPatient(string fullName) public {\n        if (patientsProviders.isRegisteredPatient(fullName)) {\n            patientsProviders.registerNewPatient(fullName);\n        }\n        emr.increaseStaying();\n    }\n\n    function dischargePatient(string fullName) public {\n        assert(patientsProviders.isRegisteredPatient(fullName));\n        emr.decreaseStaying(); \n    }\n\n    function createPatientRecord(address recordAddress, string providerCode, string fullName, string pointer, bytes32 hashedRecord) public {\n        require(!emr.doesRecordExist(recordAddress));\n        patientsProviders.addPatientRecordToProvider(recordAddress, providerCode, fullName, pointer, hashedRecord);\n        emr.createRecord(recordAddress, fullName, pointer, hashedRecord);\n    }\n\n    function updatePatientRecord(address recordAddress, string providerCode, string fullName, string pointer, bytes32 hashedRecord) public {\n        require(emr.doesRecordExist(recordAddress));\n        require(patientsProviders.providerHasRecord(providerCode, fullName));\n        emr.updateRecord(recordAddress, fullName, pointer, hashedRecord);\n    }\n}\n",
  "sourcePath": "/Users/yanjia.li/Projects/medchain/contracts/Master.sol",
  "compiler": {
    "name": "solc",
    "version": "0.4.18+commit.9cf6e910.Emscripten.clang"
  },
  "schemaVersion": "1.0.1",
  "updatedAt": "2018-03-02T05:25:58.223Z"
}