{
  "contractName": "MedicalRecords",
  "abi": [
    {
      "constant": true,
      "inputs": [
        {
          "name": "date",
          "type": "uint256"
        }
      ],
      "name": "getStayingForDate",
      "outputs": [
        {
          "name": "staying",
          "type": "uint32"
        }
      ],
      "payable": false,
      "stateMutability": "view",
      "type": "function"
    },
    {
      "constant": false,
      "inputs": [
        {
          "name": "fullName",
          "type": "string"
        }
      ],
      "name": "dischargePatient",
      "outputs": [],
      "payable": false,
      "stateMutability": "nonpayable",
      "type": "function"
    },
    {
      "constant": false,
      "inputs": [
        {
          "name": "fullName",
          "type": "string"
        }
      ],
      "name": "admitPatient",
      "outputs": [],
      "payable": false,
      "stateMutability": "nonpayable",
      "type": "function"
    },
    {
      "constant": true,
      "inputs": [
        {
          "name": "recordAddress",
          "type": "address"
        }
      ],
      "name": "getRecordByAddress",
      "outputs": [
        {
          "components": [
            {
              "name": "isActive",
              "type": "bool"
            },
            {
              "name": "providerAddress",
              "type": "address"
            },
            {
              "name": "version",
              "type": "uint32"
            },
            {
              "name": "hashedRecord",
              "type": "bytes32"
            },
            {
              "name": "pointer",
              "type": "string"
            }
          ],
          "name": "r",
          "type": "tuple"
        }
      ],
      "payable": false,
      "stateMutability": "view",
      "type": "function"
    },
    {
      "constant": false,
      "inputs": [
        {
          "name": "recordAddress",
          "type": "address"
        },
        {
          "name": "providerCode",
          "type": "string"
        },
        {
          "name": "fullName",
          "type": "string"
        },
        {
          "name": "pointer",
          "type": "string"
        },
        {
          "name": "hashedRecord",
          "type": "bytes32"
        }
      ],
      "name": "updatePatientRecord",
      "outputs": [],
      "payable": false,
      "stateMutability": "nonpayable",
      "type": "function"
    },
    {
      "constant": true,
      "inputs": [
        {
          "name": "recordAddress",
          "type": "address"
        }
      ],
      "name": "doesRecordExist",
      "outputs": [
        {
          "name": "exist",
          "type": "bool"
        }
      ],
      "payable": false,
      "stateMutability": "view",
      "type": "function"
    },
    {
      "constant": false,
      "inputs": [
        {
          "name": "recordAddress",
          "type": "address"
        },
        {
          "name": "providerCode",
          "type": "string"
        },
        {
          "name": "fullName",
          "type": "string"
        },
        {
          "name": "pointer",
          "type": "string"
        },
        {
          "name": "hashedRecord",
          "type": "bytes32"
        }
      ],
      "name": "createPatientRecord",
      "outputs": [],
      "payable": false,
      "stateMutability": "nonpayable",
      "type": "function"
    },
    {
      "inputs": [
        {
          "name": "patientsProvidersAddress",
          "type": "address"
        }
      ],
      "payable": false,
      "stateMutability": "nonpayable",
      "type": "constructor"
    }
  ],
  "bytecode": "0x6060604052341561000f57600080fd5b6040516020806117fb83398101604052808051906020019091905050336000806101000a81548173ffffffffffffffffffffffffffffffffffffffff021916908373ffffffffffffffffffffffffffffffffffffffff16021790555080600560006101000a81548173ffffffffffffffffffffffffffffffffffffffff021916908373ffffffffffffffffffffffffffffffffffffffff1602179055505061173f806100bc6000396000f300606060405260043610610083576000357c0100000000000000000000000000000000000000000000000000000000900463ffffffff168063189ef2421461008857806371eb1867146100cb5780638e87de5914610128578063b1e3cdd514610185578063de4e6b04146101d2578063e8b60c10146102e1578063f677548b14610332575b600080fd5b341561009357600080fd5b6100a96004808035906020019091905050610441565b604051808263ffffffff1663ffffffff16815260200191505060405180910390f35b34156100d657600080fd5b610126600480803590602001908201803590602001908080601f016020809104026020016040519081016040528093929190818152602001838380828437820191505050505050919050506104d3565b005b341561013357600080fd5b610183600480803590602001908201803590602001908080601f016020809104026020016040519081016040528093929190818152602001838380828437820191505050505050919050506105ff565b005b341561019057600080fd5b6101bc600480803573ffffffffffffffffffffffffffffffffffffffff16906020019091905050610832565b6040518082815260200191505060405180910390f35b34156101dd57600080fd5b6102df600480803573ffffffffffffffffffffffffffffffffffffffff1690602001909190803590602001908201803590602001908080601f0160208091040260200160405190810160405280939291908181526020018383808284378201915050505050509190803590602001908201803590602001908080601f0160208091040260200160405190810160405280939291908181526020018383808284378201915050505050509190803590602001908201803590602001908080601f0160208091040260200160405190810160405280939291908181526020018383808284378201915050505050509190803560001916906020019091905050610a2f565b005b34156102ec57600080fd5b610318600480803573ffffffffffffffffffffffffffffffffffffffff16906020019091905050610be6565b604051808215151515815260200191505060405180910390f35b341561033d57600080fd5b61043f600480803573ffffffffffffffffffffffffffffffffffffffff1690602001909190803590602001908201803590602001908080601f0160208091040260200160405190810160405280939291908181526020018383808284378201915050505050509190803590602001908201803590602001908080601f0160208091040260200160405190810160405280939291908181526020018383808284378201915050505050509190803590602001908201803590602001908080601f0160208091040260200160405190810160405280939291908181526020018383808284378201915050505050509190803560001916906020019091905050610c3f565b005b60008061044c610e9e565b90508083108015610487575060006002600085815260200190815260200160002060009054906101000a900463ffffffff1663ffffffff1614155b156104b7576002600084815260200190815260200160002060009054906101000a900463ffffffff1691506104cd565b600360009054906101000a900463ffffffff1691505b50919050565b600560009054906101000a900473ffffffffffffffffffffffffffffffffffffffff1673ffffffffffffffffffffffffffffffffffffffff1663f7252641826000604051602001526040518263ffffffff167c01000000000000000000000000000000000000000000000000000000000281526004018080602001828103825283818151815260200191508051906020019080838360005b8381101561058657808201518184015260208101905061056b565b50505050905090810190601f1680156105b35780820380516001836020036101000a031916815260200191505b5092505050602060405180830381600087803b15156105d157600080fd5b6102c65a03f115156105e257600080fd5b5050506040518051905015156105f457fe5b6105fc610ec9565b50565b600560009054906101000a900473ffffffffffffffffffffffffffffffffffffffff1673ffffffffffffffffffffffffffffffffffffffff1663f7252641826000604051602001526040518263ffffffff167c01000000000000000000000000000000000000000000000000000000000281526004018080602001828103825283818151815260200191508051906020019080838360005b838110156106b2578082015181840152602081019050610697565b50505050905090810190601f1680156106df5780820380516001836020036101000a031916815260200191505b5092505050602060405180830381600087803b15156106fd57600080fd5b6102c65a03f1151561070e57600080fd5b505050604051805190501561082757600560009054906101000a900473ffffffffffffffffffffffffffffffffffffffff1673ffffffffffffffffffffffffffffffffffffffff1663838f47ca826040518263ffffffff167c01000000000000000000000000000000000000000000000000000000000281526004018080602001828103825283818151815260200191508051906020019080838360005b838110156107c75780820151818401526020810190506107ac565b50505050905090810190601f1680156107f45780820380516001836020036101000a031916815260200191505b5092505050600060405180830381600087803b151561081257600080fd5b6102c65a03f1151561082357600080fd5b5050505b61082f610f79565b50565b61083a61157c565b600160008373ffffffffffffffffffffffffffffffffffffffff1673ffffffffffffffffffffffffffffffffffffffff16815260200190815260200160002060000160009054906101000a900460ff16151561089257fe5b600160008373ffffffffffffffffffffffffffffffffffffffff1673ffffffffffffffffffffffffffffffffffffffff16815260200190815260200160002060a060405190810160405290816000820160009054906101000a900460ff161515151581526020016000820160019054906101000a900473ffffffffffffffffffffffffffffffffffffffff1673ffffffffffffffffffffffffffffffffffffffff1673ffffffffffffffffffffffffffffffffffffffff1681526020016000820160159054906101000a900463ffffffff1663ffffffff1663ffffffff168152602001600182015460001916600019168152602001600282018054600181600116156101000203166002900480601f016020809104026020016040519081016040528092919081815260200182805460018160011615610100020316600290048015610a1f5780601f106109f457610100808354040283529160200191610a1f565b820191906000526020600020905b815481529060010190602001808311610a0257829003601f168201915b5050505050815250509050919050565b610a3885610be6565b1515610a4357600080fd5b600560009054906101000a900473ffffffffffffffffffffffffffffffffffffffff1673ffffffffffffffffffffffffffffffffffffffff16636acec9cc85856000604051602001526040518363ffffffff167c0100000000000000000000000000000000000000000000000000000000028152600401808060200180602001838103835285818151815260200191508051906020019080838360005b83811015610afb578082015181840152602081019050610ae0565b50505050905090810190601f168015610b285780820380516001836020036101000a031916815260200191505b50838103825284818151815260200191508051906020019080838360005b83811015610b61578082015181840152602081019050610b46565b50505050905090810190601f168015610b8e5780820380516001836020036101000a031916815260200191505b50945050505050602060405180830381600087803b1515610bae57600080fd5b6102c65a03f11515610bbf57600080fd5b505050604051805190501515610bd457600080fd5b610bdf8583836110bb565b5050505050565b6000600160008373ffffffffffffffffffffffffffffffffffffffff1673ffffffffffffffffffffffffffffffffffffffff16815260200190815260200160002060000160009054906101000a900460ff169050919050565b610c4885610be6565b151515610c5457600080fd5b600560009054906101000a900473ffffffffffffffffffffffffffffffffffffffff1673ffffffffffffffffffffffffffffffffffffffff166364e7346d86868686866000604051602001526040518663ffffffff167c0100000000000000000000000000000000000000000000000000000000028152600401808673ffffffffffffffffffffffffffffffffffffffff1673ffffffffffffffffffffffffffffffffffffffff1681526020018060200180602001806020018560001916600019168152602001848103845288818151815260200191508051906020019080838360005b83811015610d53578082015181840152602081019050610d38565b50505050905090810190601f168015610d805780820380516001836020036101000a031916815260200191505b50848103835287818151815260200191508051906020019080838360005b83811015610db9578082015181840152602081019050610d9e565b50505050905090810190601f168015610de65780820380516001836020036101000a031916815260200191505b50848103825286818151815260200191508051906020019080838360005b83811015610e1f578082015181840152602081019050610e04565b50505050905090810190601f168015610e4c5780820380516001836020036101000a031916815260200191505b5098505050505050505050602060405180830381600087803b1515610e7057600080fd5b6102c65a03f11515610e8157600080fd5b5050506040518051905050610e97858383611325565b5050505050565b60006018603c8042811515610eaf57fe5b04811515610eb957fe5b04811515610ec357fe5b04905090565b6000600360009054906101000a900463ffffffff1663ffffffff16111515610ef057600080fd5b6003600081819054906101000a900463ffffffff16809291906001900391906101000a81548163ffffffff021916908363ffffffff16021790555050600360009054906101000a900463ffffffff1660026000610f4b610e9e565b815260200190815260200160002060006101000a81548163ffffffff021916908363ffffffff160217905550565b600080600360009054906101000a900463ffffffff1663ffffffff166001600360009054906101000a900463ffffffff160163ffffffff16111515610fbd57600080fd5b610fc5610e9e565b91508160045410156110385760045490505b8181101561103057600360009054906101000a900463ffffffff166002600083815260200190815260200160002060006101000a81548163ffffffff021916908363ffffffff1602179055506201518081019050610fd7565b816004819055505b6003600081819054906101000a900463ffffffff168092919060010191906101000a81548163ffffffff021916908363ffffffff16021790555050600360009054906101000a900463ffffffff166002600084815260200190815260200160002060006101000a81548163ffffffff021916908363ffffffff1602179055505050565b6000600160008573ffffffffffffffffffffffffffffffffffffffff1673ffffffffffffffffffffffffffffffffffffffff16815260200190815260200160002090508060000160009054906101000a900460ff16151561111b57600080fd5b8060000160019054906101000a900473ffffffffffffffffffffffffffffffffffffffff1673ffffffffffffffffffffffffffffffffffffffff163273ffffffffffffffffffffffffffffffffffffffff1614151561117957600080fd5b828160020190805190602001906111919291906115d3565b508181600101816000191690555060018160000160159054906101000a900463ffffffff16018160000160156101000a81548163ffffffff021916908363ffffffff16021790555080600160008673ffffffffffffffffffffffffffffffffffffffff1673ffffffffffffffffffffffffffffffffffffffff1681526020019081526020016000206000820160009054906101000a900460ff168160000160006101000a81548160ff0219169083151502179055506000820160019054906101000a900473ffffffffffffffffffffffffffffffffffffffff168160000160016101000a81548173ffffffffffffffffffffffffffffffffffffffff021916908373ffffffffffffffffffffffffffffffffffffffff1602179055506000820160159054906101000a900463ffffffff168160000160156101000a81548163ffffffff021916908363ffffffff160217905550600182015481600101906000191690556002820181600201908054600181600116156101000203166002900461131b929190611653565b5090505050505050565b6000600160008573ffffffffffffffffffffffffffffffffffffffff1673ffffffffffffffffffffffffffffffffffffffff16815260200190815260200160002090508060000160009054906101000a900460ff1615151561138657600080fd5b60018160000160006101000a81548160ff021916908315150217905550328160000160016101000a81548173ffffffffffffffffffffffffffffffffffffffff021916908373ffffffffffffffffffffffffffffffffffffffff160217905550828160020190805190602001906113fe9291906115d3565b508181600101816000191690555060018160000160156101000a81548163ffffffff021916908363ffffffff16021790555080600160008673ffffffffffffffffffffffffffffffffffffffff1673ffffffffffffffffffffffffffffffffffffffff1681526020019081526020016000206000820160009054906101000a900460ff168160000160006101000a81548160ff0219169083151502179055506000820160019054906101000a900473ffffffffffffffffffffffffffffffffffffffff168160000160016101000a81548173ffffffffffffffffffffffffffffffffffffffff021916908373ffffffffffffffffffffffffffffffffffffffff1602179055506000820160159054906101000a900463ffffffff168160000160156101000a81548163ffffffff021916908363ffffffff1602179055506001820154816001019060001916905560028201816002019080546001816001161561010002031660029004611572929190611653565b5090505050505050565b60a060405190810160405280600015158152602001600073ffffffffffffffffffffffffffffffffffffffff168152602001600063ffffffff168152602001600080191681526020016115cd6116da565b81525090565b828054600181600116156101000203166002900490600052602060002090601f016020900481019282601f1061161457805160ff1916838001178555611642565b82800160010185558215611642579182015b82811115611641578251825591602001919060010190611626565b5b50905061164f91906116ee565b5090565b828054600181600116156101000203166002900490600052602060002090601f016020900481019282601f1061168c57805485556116c9565b828001600101855582156116c957600052602060002091601f016020900482015b828111156116c85782548255916001019190600101906116ad565b5b5090506116d691906116ee565b5090565b602060405190810160405280600081525090565b61171091905b8082111561170c5760008160009055506001016116f4565b5090565b905600a165627a7a72305820b90b30749db1ebe4e405de6b0a3d61ab834537ada1b0d1581c967b1ac394f8250029",
  "source": "pragma solidity ^0.4.17;\n\nimport './PatientsProviders.sol';\n\ncontract MedicalRecords {\n\n    address admin;\n    mapping(address => Record) private records; // A map of records where key is record address and value is record struct\n    mapping(uint => uint32) private historicalTotalStaying; // A map for historical staying data where key is the date timestamp and value is number of staying\n    uint32 private currentTotalStaying; // current total number of patient staying in hospital\n    uint lastRecordedDate;\n    PatientsProviders patientsProviders;\n\n    function MedicalRecords(address patientsProvidersAddress) public {\n        admin = msg.sender;\n        patientsProviders = PatientsProviders(patientsProvidersAddress);\n    }\n\n    struct Record {\n        bool isActive;\n        address providerAddress; // From which address this record is created\n        uint32 version; // version number\n        bytes32 hashedRecord; // sha256 of full records from the provider\n        string pointer; // A remote address to access patient's full records in provider's database\n    }\n\n    /*\n        Calculate the unix timestamp for today GTM 12:00 AM \n    */\n    function getCurrentDate() view private returns (uint date) {\n        return uint(now) / 60 / 60 / 24;\n    }\n\n    /*\n        Get the number of staying patients for a given date\n    */\n    function getStayingForDate(uint date) view public returns (uint32 staying) {\n        uint currentDate = getCurrentDate();\n        if (date < currentDate && historicalTotalStaying[date] != 0) {\n            return historicalTotalStaying[date]; \n        } else {\n            return currentTotalStaying;\n        }\n    }\n\n    /*\n        Check if a record exist given a record address\n    */\n    function doesRecordExist(address recordAddress) view public returns (bool exist) {\n        return records[recordAddress].isActive;\n    }\n\n    /*\n        Get record struct by its address if the record exist\n    */\n    function getRecordByAddress(address recordAddress) view public returns (Record r) {\n        assert(records[recordAddress].isActive);\n        return records[recordAddress]; \n    }\n\n    /*\n        Admit a new patient\n     */\n    function admitPatient(string fullName) public {\n        if (patientsProviders.isRegisteredPatient(fullName)) {\n            patientsProviders.registerNewPatient(fullName);\n        }\n        increaseStaying();\n    }\n\n    /*\n        Discharge a patient\n    */\n    function dischargePatient(string fullName) public {\n        assert(patientsProviders.isRegisteredPatient(fullName));\n        decreaseStaying(); \n    }\n\n    /*\n        Private: Increment the current staying number by 1. Update the lastRecordDate to now.\n    */\n    function increaseStaying() private {\n        require(currentTotalStaying + 1 > currentTotalStaying);\n        uint currentDate = getCurrentDate();\n        // If lastRecordDate is not now, it means the number of staying keeps the same recently. We'll need to backfill the data from now back to lastRecordedDate.\n        if (lastRecordedDate < currentDate) {\n            for (uint date = lastRecordedDate; date < currentDate; date += 60 * 60 * 24) {\n                historicalTotalStaying[date] = currentTotalStaying;\n            }\n            lastRecordedDate = currentDate;\n        }\n        currentTotalStaying++;\n        historicalTotalStaying[currentDate] = currentTotalStaying;\n    }\n\n    /*\n        Private: Decrement the current staying number by 1.\n    */\n    function decreaseStaying() private {\n        require(currentTotalStaying > 0);\n        currentTotalStaying--;\n        historicalTotalStaying[getCurrentDate()] = currentTotalStaying;\n    }\n\n    /*\n        Given some record meta data and an randonly address generated by client, create a record struc\n    */\n    function createPatientRecord(address recordAddress, string providerCode, string fullName, string pointer, bytes32 hashedRecord) public {\n        require(!doesRecordExist(recordAddress));\n        patientsProviders.addPatientRecordToProvider(recordAddress, providerCode, fullName, pointer, hashedRecord);\n        createRecord(recordAddress, pointer, hashedRecord);\n    }\n\n    /*\n        Given some record meta data and the record address, update a record struct\n    */\n    function updatePatientRecord(address recordAddress, string providerCode, string fullName, string pointer, bytes32 hashedRecord) public {\n        require(doesRecordExist(recordAddress));\n        require(patientsProviders.providerHasRecord(providerCode, fullName));\n        updateRecord(recordAddress, pointer, hashedRecord);\n    }\n\n    /*\n        Private: create record struct\n    */\n    function createRecord(address recordAddress, string pointer, bytes32 hashedRecord) private {\n        Record storage record = records[recordAddress];\n        require(!record.isActive);\n        // Only the owner of the record could update it\n        record.isActive = true;\n        record.providerAddress = tx.origin;\n        record.pointer = pointer;\n        record.hashedRecord = hashedRecord;\n        record.version = 1;\n        records[recordAddress] = record;\n    }\n\n    /*\n        Private: update record struct \n    */\n    function updateRecord(address recordAddress, string pointer, bytes32 hashedRecord) private {\n        Record storage record = records[recordAddress];\n        require(record.isActive);\n        // Only the owner of the record could update it\n        require(tx.origin == record.providerAddress);\n        record.pointer = pointer;\n        record.hashedRecord = hashedRecord;\n        record.version = record.version + 1;\n        records[recordAddress] = record;\n    }\n}\n",
  "sourcePath": "/Users/yanjia.li/Projects/medchain/contracts/MedicalRecords.sol",
  "compiler": {
    "name": "solc",
    "version": "0.4.18+commit.9cf6e910.Emscripten.clang"
  },
  "schemaVersion": "1.0.1",
  "updatedAt": "2018-03-02T12:28:37.697Z"
}