{
  "contractName": "PatientsProviders",
  "abi": [
    {
      "constant": true,
      "inputs": [
        {
          "name": "fullName",
          "type": "string"
        }
      ],
      "name": "getPatientRecordsFromAllProviders",
      "outputs": [
        {
          "name": "r",
          "type": "address[]"
        }
      ],
      "payable": false,
      "stateMutability": "view",
      "type": "function"
    },
    {
      "constant": true,
      "inputs": [
        {
          "name": "providerCode",
          "type": "string"
        },
        {
          "name": "fullName",
          "type": "string"
        }
      ],
      "name": "getPatientRecordAddressFromOneProvider",
      "outputs": [
        {
          "name": "r",
          "type": "address"
        }
      ],
      "payable": false,
      "stateMutability": "view",
      "type": "function"
    },
    {
      "constant": false,
      "inputs": [
        {
          "name": "recordAddress",
          "type": "address"
        },
        {
          "name": "providerCode",
          "type": "string"
        },
        {
          "name": "fullName",
          "type": "string"
        },
        {
          "name": "pointer",
          "type": "string"
        },
        {
          "name": "hashedRecord",
          "type": "bytes32"
        }
      ],
      "name": "addPatientRecordToProvider",
      "outputs": [
        {
          "name": "success",
          "type": "bool"
        }
      ],
      "payable": false,
      "stateMutability": "nonpayable",
      "type": "function"
    },
    {
      "constant": false,
      "inputs": [
        {
          "name": "providerCode",
          "type": "string"
        },
        {
          "name": "fullName",
          "type": "string"
        }
      ],
      "name": "providerHasRecord",
      "outputs": [
        {
          "name": "has",
          "type": "bool"
        }
      ],
      "payable": false,
      "stateMutability": "nonpayable",
      "type": "function"
    },
    {
      "constant": false,
      "inputs": [
        {
          "name": "providerCode",
          "type": "string"
        },
        {
          "name": "providerAddress",
          "type": "address"
        }
      ],
      "name": "registerNewProvider",
      "outputs": [],
      "payable": false,
      "stateMutability": "nonpayable",
      "type": "function"
    },
    {
      "constant": false,
      "inputs": [
        {
          "name": "fullName",
          "type": "string"
        }
      ],
      "name": "registerNewPatient",
      "outputs": [],
      "payable": false,
      "stateMutability": "nonpayable",
      "type": "function"
    },
    {
      "constant": false,
      "inputs": [
        {
          "name": "fullName",
          "type": "string"
        }
      ],
      "name": "isRegisteredPatient",
      "outputs": [
        {
          "name": "isRegistered",
          "type": "bool"
        }
      ],
      "payable": false,
      "stateMutability": "nonpayable",
      "type": "function"
    },
    {
      "constant": false,
      "inputs": [
        {
          "name": "providerCode",
          "type": "string"
        }
      ],
      "name": "isRegisteredProvider",
      "outputs": [
        {
          "name": "isRegistered",
          "type": "bool"
        }
      ],
      "payable": false,
      "stateMutability": "nonpayable",
      "type": "function"
    },
    {
      "inputs": [
        {
          "name": "fuzzyMatcherAddress",
          "type": "address"
        }
      ],
      "payable": false,
      "stateMutability": "nonpayable",
      "type": "constructor"
    }
  ],
  "bytecode": "0x6060604052341561000f57600080fd5b60405160208061184883398101604052808051906020019091905050336000806101000a81548173ffffffffffffffffffffffffffffffffffffffff021916908373ffffffffffffffffffffffffffffffffffffffff16021790555080600360006101000a81548173ffffffffffffffffffffffffffffffffffffffff021916908373ffffffffffffffffffffffffffffffffffffffff1602179055505061178c806100bc6000396000f30060606040526004361061008e576000357c0100000000000000000000000000000000000000000000000000000000900463ffffffff168063210726fb14610093578063579c77791461014557806364e7346d146102255780636acec9cc1461034c57806383505fd514610404578063838f47ca14610480578063f7252641146104dd578063fe917ddb14610552575b600080fd5b341561009e57600080fd5b6100ee600480803590602001908201803590602001908080601f016020809104026020016040519081016040528093929190818152602001838380828437820191505050505050919050506105c7565b6040518080602001828103825283818151815260200191508051906020019060200280838360005b83811015610131578082015181840152602081019050610116565b505050509050019250505060405180910390f35b341561015057600080fd5b6101e3600480803590602001908201803590602001908080601f0160208091040260200160405190810160405280939291908181526020018383808284378201915050505050509190803590602001908201803590602001908080601f016020809104026020016040519081016040528093929190818152602001838380828437820191505050505050919050506108d3565b604051808273ffffffffffffffffffffffffffffffffffffffff1673ffffffffffffffffffffffffffffffffffffffff16815260200191505060405180910390f35b341561023057600080fd5b610332600480803573ffffffffffffffffffffffffffffffffffffffff1690602001909190803590602001908201803590602001908080601f0160208091040260200160405190810160405280939291908181526020018383808284378201915050505050509190803590602001908201803590602001908080601f0160208091040260200160405190810160405280939291908181526020018383808284378201915050505050509190803590602001908201803590602001908080601f01602080910402602001604051908101604052809392919081815260200183838082843782019150505050505091908035600019169060200190919050506109d5565b604051808215151515815260200191505060405180910390f35b341561035757600080fd5b6103ea600480803590602001908201803590602001908080601f0160208091040260200160405190810160405280939291908181526020018383808284378201915050505050509190803590602001908201803590602001908080601f01602080910402602001604051908101604052809392919081815260200183838082843782019150505050505091905050610d3f565b604051808215151515815260200191505060405180910390f35b341561040f57600080fd5b61047e600480803590602001908201803590602001908080601f0160208091040260200160405190810160405280939291908181526020018383808284378201915050505050509190803573ffffffffffffffffffffffffffffffffffffffff16906020019091905050610edf565b005b341561048b57600080fd5b6104db600480803590602001908201803590602001908080601f01602080910402602001604051908101604052809392919081815260200183838082843782019150505050505091905050611041565b005b34156104e857600080fd5b610538600480803590602001908201803590602001908080601f016020809104026020016040519081016040528093929190818152602001838380828437820191505050505050919050506112fe565b604051808215151515815260200191505060405180910390f35b341561055d57600080fd5b6105ad600480803590602001908201803590602001908080601f01602080910402602001604051908101604052809392919081815260200183838082843782019150505050505091905050611383565b604051808215151515815260200191505060405180910390f35b6105cf611408565b6105d761141c565b6105df611408565b60006002856040518082805190602001908083835b60208310151561061957805182526020820191506020810190506020830392506105f4565b6001836020036101000a0380198251168184511680821785525050505050509050019150509081526020016040518091039020600201805480602002602001604051908101604052809291908181526020016000905b8282101561072c57838290600052602060002090018054600181600116156101000203166002900480601f0160208091040260200160405190810160405280929190818152602001828054600181600116156101000203166002900480156107185780601f106106ed57610100808354040283529160200191610718565b820191906000526020600020905b8154815290600101906020018083116106fb57829003601f168201915b50505050508152602001906001019061066f565b50505050925082516040518059106107415750595b90808252806020026020018201604052509150600090505b82518110156108c8576001838281518110151561077257fe5b906020019060200201516040518082805190602001908083835b6020831015156107b1578051825260208201915060208101905060208303925061078c565b6001836020036101000a0380198251168184511680821785525050505050509050019150509081526020016040518091039020600101856040518082805190602001908083835b60208310151561081d57805182526020820191506020810190506020830392506107f8565b6001836020036101000a038019825116818451168082178552505050505050905001915050908152602001604051809103902060009054906101000a900473ffffffffffffffffffffffffffffffffffffffff16828281518110151561087f57fe5b9060200190602002019073ffffffffffffffffffffffffffffffffffffffff16908173ffffffffffffffffffffffffffffffffffffffff16815250508080600101915050610759565b819350505050919050565b60006001836040518082805190602001908083835b60208310151561090d57805182526020820191506020810190506020830392506108e8565b6001836020036101000a0380198251168184511680821785525050505050509050019150509081526020016040518091039020600101826040518082805190602001908083835b6020831015156109795780518252602082019150602081019050602083039250610954565b6001836020036101000a038019825116818451168082178552505050505050905001915050908152602001604051809103902060009054906101000a900473ffffffffffffffffffffffffffffffffffffffff16905092915050565b60008060006109e48787610d3f565b1515156109ed57fe5b6109f6866112fe565b15156109fe57fe5b610a0787611383565b1515610a0f57fe5b6002866040518082805190602001908083835b602083101515610a475780518252602082019150602081019050602083039250610a22565b6001836020036101000a03801982511681845116808217855250505050505090500191505090815260200160405180910390209150600182600301886040518082805190602001908083835b602083101515610ab85780518252602082019150602081019050602083039250610a93565b6001836020036101000a038019825116818451168082178552505050505050905001915050908152602001604051809103902060006101000a81548160ff021916908315150217905550816002018054806001018281610b189190611430565b916000526020600020900160008990919091509080519060200190610b3e92919061145c565b5050816002876040518082805190602001908083835b602083101515610b795780518252602082019150602081019050602083039250610b54565b6001836020036101000a03801982511681845116808217855250505050505090500191505090815260200160405180910390206000820160009054906101000a900460ff168160000160006101000a81548160ff02191690831515021790555060018201816001019080546001816001161561010002031660029004610c009291906114dc565b506002820181600201908054610c17929190611563565b509050506001876040518082805190602001908083835b602083101515610c535780518252602082019150602081019050602083039250610c2e565b6001836020036101000a038019825116818451168082178552505050505050905001915050908152602001604051809103902090508781600101876040518082805190602001908083835b602083101515610cc35780518252602082019150602081019050602083039250610c9e565b6001836020036101000a038019825116818451168082178552505050505050905001915050908152602001604051809103902060006101000a81548173ffffffffffffffffffffffffffffffffffffffff021916908373ffffffffffffffffffffffffffffffffffffffff160217905550505095945050505050565b60006001836040518082805190602001908083835b602083101515610d795780518252602082019150602081019050602083039250610d54565b6001836020036101000a038019825116818451168082178552505050505050905001915050908152602001604051809103902060000160009054906101000a900460ff161515610dc557fe5b60006001846040518082805190602001908083835b602083101515610dff5780518252602082019150602081019050602083039250610dda565b6001836020036101000a0380198251168184511680821785525050505050509050019150509081526020016040518091039020600101836040518082805190602001908083835b602083101515610e6b5780518252602082019150602081019050602083039250610e46565b6001836020036101000a038019825116818451168082178552505050505050905001915050908152602001604051809103902060009054906101000a900473ffffffffffffffffffffffffffffffffffffffff1673ffffffffffffffffffffffffffffffffffffffff161415905092915050565b6000809054906101000a900473ffffffffffffffffffffffffffffffffffffffff1673ffffffffffffffffffffffffffffffffffffffff163373ffffffffffffffffffffffffffffffffffffffff16141515610f3a57600080fd5b60408051908101604052806001151581526020018273ffffffffffffffffffffffffffffffffffffffff168152506001836040518082805190602001908083835b602083101515610fa05780518252602082019150602081019050602083039250610f7b565b6001836020036101000a038019825116818451168082178552505050505050905001915050908152602001604051809103902060008201518160000160006101000a81548160ff02191690831515021790555060208201518160000160016101000a81548173ffffffffffffffffffffffffffffffffffffffff021916908373ffffffffffffffffffffffffffffffffffffffff1602179055509050505050565b6002816040518082805190602001908083835b6020831015156110795780518252602082019150602081019050602083039250611054565b6001836020036101000a038019825116818451168082178552505050505050905001915050908152602001604051809103902060000160009054906101000a900460ff161515156110c657fe5b60606040519081016040528060011515815260200182815260200160006040518059106110f05750595b90808252806020026020018201604052801561112657816020015b6111136115d3565b81526020019060019003908161110b5790505b508152506002826040518082805190602001908083835b602083101515611162578051825260208201915060208101905060208303925061113d565b6001836020036101000a038019825116818451168082178552505050505050905001915050908152602001604051809103902060008201518160000160006101000a81548160ff02191690831515021790555060208201518160010190805190602001906111d19291906115e7565b5060408201518160020190805190602001906111ee929190611667565b50905050600360009054906101000a900473ffffffffffffffffffffffffffffffffffffffff1673ffffffffffffffffffffffffffffffffffffffff1663734eed26826040518263ffffffff167c01000000000000000000000000000000000000000000000000000000000281526004018080602001828103825283818151815260200191508051906020019080838360005b8381101561129c578082015181840152602081019050611281565b50505050905090810190601f1680156112c95780820380516001836020036101000a031916815260200191505b5092505050600060405180830381600087803b15156112e757600080fd5b6102c65a03f115156112f857600080fd5b50505050565b60006002826040518082805190602001908083835b6020831015156113385780518252602082019150602081019050602083039250611313565b6001836020036101000a038019825116818451168082178552505050505050905001915050908152602001604051809103902060000160009054906101000a900460ff169050919050565b60006001826040518082805190602001908083835b6020831015156113bd5780518252602082019150602081019050602083039250611398565b6001836020036101000a038019825116818451168082178552505050505050905001915050908152602001604051809103902060000160009054906101000a900460ff169050919050565b602060405190810160405280600081525090565b602060405190810160405280600081525090565b8154818355818115116114575781836000526020600020918201910161145691906116c7565b5b505050565b828054600181600116156101000203166002900490600052602060002090601f016020900481019282601f1061149d57805160ff19168380011785556114cb565b828001600101855582156114cb579182015b828111156114ca5782518255916020019190600101906114af565b5b5090506114d891906116f3565b5090565b828054600181600116156101000203166002900490600052602060002090601f016020900481019282601f106115155780548555611552565b8280016001018555821561155257600052602060002091601f016020900482015b82811115611551578254825591600101919060010190611536565b5b50905061155f91906116f3565b5090565b8280548282559060005260206000209081019282156115c25760005260206000209182015b828111156115c157828290805460018160011615610100020316600290046115b19291906114dc565b5091600101919060010190611588565b5b5090506115cf91906116c7565b5090565b602060405190810160405280600081525090565b828054600181600116156101000203166002900490600052602060002090601f016020900481019282601f1061162857805160ff1916838001178555611656565b82800160010185558215611656579182015b8281111561165557825182559160200191906001019061163a565b5b50905061166391906116f3565b5090565b8280548282559060005260206000209081019282156116b6579160200282015b828111156116b55782518290805190602001906116a59291906115e7565b5091602001919060010190611687565b5b5090506116c391906116c7565b5090565b6116f091905b808211156116ec57600081816116e39190611718565b506001016116cd565b5090565b90565b61171591905b808211156117115760008160009055506001016116f9565b5090565b90565b50805460018160011615610100020316600290046000825580601f1061173e575061175d565b601f01602090049060005260206000209081019061175c91906116f3565b5b505600a165627a7a72305820c3c80b97620320ab8d58a906c5a5a58b017e35d73147c0dff5f7cdd2db71b1a40029",
  "source": "pragma solidity ^0.4.17;\n\nimport './FuzzyMatcher.sol';\n\ncontract PatientsProviders {\n\n    address admin;\n    \n    // A map of providers where key is code and value is provider struct\n    mapping(string => Provider) private providers;\n\n    // A map of patients where key is (hashed) full name and value is patient struct\n    mapping(string => Patient) private patients;\n\n    // FuzzyMatcher contract\n    FuzzyMatcher fuzzyMatcher; \n\n    function PatientsProviders(address fuzzyMatcherAddress) public {\n        admin = msg.sender;\n        fuzzyMatcher = FuzzyMatcher(fuzzyMatcherAddress);\n    }\n\n    struct Provider {\n        bool isActive;\n        address providerAddress;\n        mapping(string => address) records; // A map of records where key is patient full name and value is patient record address\n    }\n\n    struct Patient {\n        bool isActive;\n        string fullName; // Patient full name\n        string[] historicalProviders; // An array of providers which hold records of this patient\n        mapping(string => bool) isHistoricalProvider; // A map to flag if a providers has record of this patient of not. Key is provider code and value is the flag\n    }\n\n    /*\n        Register a new patient with given full name. Also add this new name to fuzzy matcher.\n    */\n    function registerNewPatient(string fullName) {\n        assert(!patients[fullName].isActive);\n        patients[fullName] = Patient({ isActive: true, fullName: fullName, historicalProviders: new string[](0) });\n        fuzzyMatcher.addNewNode(fullName);\n    }\n\n    /*\n        Register a new provider. Only certain admin node could do so.\n    */\n    function registerNewProvider(string providerCode, address providerAddress) {\n        require(msg.sender == admin);\n        providers[providerCode] = Provider({ isActive: true, providerAddress: providerAddress });\n    }\n\n    /*\n        Check if given full name has been registered as a patient\n    */\n    function isRegisteredPatient(string fullName) public returns(bool isRegistered) {\n        return patients[fullName].isActive;\n    }\n\n    /*\n        Check if given provider code has been registered as a provider\n    */\n    function isRegisteredProvider(string providerCode) public returns(bool isRegistered) {\n        return providers[providerCode].isActive;\n    }\n\n    /*\n        Associate given patient's record with given provider if the patient is new to the provider\n    */\n    function addPatientRecordToProvider(address recordAddress, string providerCode, string fullName, string pointer, bytes32 hashedRecord) public returns(bool success) {\n        assert(!providerHasRecord(providerCode, fullName));\n        assert(isRegisteredPatient(fullName));\n        assert(isRegisteredProvider(providerCode));\n        Patient patient = patients[fullName];\n        patient.isHistoricalProvider[providerCode] = true;\n        patient.historicalProviders.push(providerCode);\n        patients[fullName] = patient;\n        Provider provider = providers[providerCode];\n        provider.records[fullName] = recordAddress;\n    }\n\n    /*\n        Check if the given provider has any record of the patient with given full name\n    */\n    function providerHasRecord(string providerCode, string fullName) public returns(bool has) {\n        assert(providers[providerCode].isActive);\n        return providers[providerCode].records[fullName] != 0x0;\n    }\n\n    /*\n        Get the record address from the given provider for a patient\n    */\n    function getPatientRecordAddressFromOneProvider(string providerCode, string fullName) public constant returns (address r) {\n        return providers[providerCode].records[fullName];\n    }\n\n    /*\n        Get a list of record address from all providers for a patient.\n    */\n    function getPatientRecordsFromAllProviders(string fullName) public constant returns (address[] r) {\n        string[] memory historical = patients[fullName].historicalProviders;\n        address[] memory results = new address[](historical.length);\n        for (uint index = 0; index < historical.length; index++) {\n            results[index] = providers[historical[index]].records[fullName];\n        }\n        return results;\n    }\n}\n",
  "sourcePath": "/Users/yanjia.li/Projects/medchain/contracts/PatientsProviders.sol",
  "compiler": {
    "name": "solc",
    "version": "0.4.18+commit.9cf6e910.Emscripten.clang"
  },
  "schemaVersion": "1.0.1",
  "updatedAt": "2018-03-02T12:28:37.734Z"
}